{
  "address": "0x68420488e634016B5e7327B9320c2893fa0966Ab",
  "abi": [
    {
      "inputs": [
        {
          "internalType": "address",
          "name": "deployer",
          "type": "address"
        },
        {
          "internalType": "address",
          "name": "tokenAddress",
          "type": "address"
        }
      ],
      "stateMutability": "nonpayable",
      "type": "constructor"
    },
    {
      "inputs": [],
      "name": "AccessControlBadConfirmation",
      "type": "error"
    },
    {
      "inputs": [
        {
          "internalType": "address",
          "name": "account",
          "type": "address"
        },
        {
          "internalType": "bytes32",
          "name": "neededRole",
          "type": "bytes32"
        }
      ],
      "name": "AccessControlUnauthorizedAccount",
      "type": "error"
    },
    {
      "inputs": [],
      "name": "NoAvailableLockers",
      "type": "error"
    },
    {
      "anonymous": false,
      "inputs": [
        {
          "indexed": true,
          "internalType": "address",
          "name": "buyer",
          "type": "address"
        },
        {
          "indexed": false,
          "internalType": "uint256",
          "name": "amount",
          "type": "uint256"
        },
        {
          "indexed": false,
          "internalType": "string",
          "name": "email",
          "type": "string"
        }
      ],
      "name": "BuyPotato",
      "type": "event"
    },
    {
      "anonymous": false,
      "inputs": [
        {
          "indexed": true,
          "internalType": "address",
          "name": "buyer",
          "type": "address"
        },
        {
          "indexed": false,
          "internalType": "uint8",
          "name": "lockerNumber",
          "type": "uint8"
        }
      ],
      "name": "LockerAssigned",
      "type": "event"
    },
    {
      "anonymous": false,
      "inputs": [
        {
          "indexed": true,
          "internalType": "address",
          "name": "buyer",
          "type": "address"
        },
        {
          "indexed": false,
          "internalType": "uint8",
          "name": "lockerNumber",
          "type": "uint8"
        }
      ],
      "name": "LockerOpened",
      "type": "event"
    },
    {
      "anonymous": false,
      "inputs": [
        {
          "indexed": true,
          "internalType": "bytes32",
          "name": "role",
          "type": "bytes32"
        },
        {
          "indexed": true,
          "internalType": "bytes32",
          "name": "previousAdminRole",
          "type": "bytes32"
        },
        {
          "indexed": true,
          "internalType": "bytes32",
          "name": "newAdminRole",
          "type": "bytes32"
        }
      ],
      "name": "RoleAdminChanged",
      "type": "event"
    },
    {
      "anonymous": false,
      "inputs": [
        {
          "indexed": true,
          "internalType": "bytes32",
          "name": "role",
          "type": "bytes32"
        },
        {
          "indexed": true,
          "internalType": "address",
          "name": "account",
          "type": "address"
        },
        {
          "indexed": true,
          "internalType": "address",
          "name": "sender",
          "type": "address"
        }
      ],
      "name": "RoleGranted",
      "type": "event"
    },
    {
      "anonymous": false,
      "inputs": [
        {
          "indexed": true,
          "internalType": "bytes32",
          "name": "role",
          "type": "bytes32"
        },
        {
          "indexed": true,
          "internalType": "address",
          "name": "account",
          "type": "address"
        },
        {
          "indexed": true,
          "internalType": "address",
          "name": "sender",
          "type": "address"
        }
      ],
      "name": "RoleRevoked",
      "type": "event"
    },
    {
      "inputs": [],
      "name": "DEFAULT_ADMIN_ROLE",
      "outputs": [
        {
          "internalType": "bytes32",
          "name": "",
          "type": "bytes32"
        }
      ],
      "stateMutability": "view",
      "type": "function"
    },
    {
      "inputs": [],
      "name": "_lastLockerNumber",
      "outputs": [
        {
          "internalType": "uint8",
          "name": "",
          "type": "uint8"
        }
      ],
      "stateMutability": "view",
      "type": "function"
    },
    {
      "inputs": [
        {
          "internalType": "uint8",
          "name": "",
          "type": "uint8"
        }
      ],
      "name": "_lockerToBuyer",
      "outputs": [
        {
          "internalType": "address",
          "name": "",
          "type": "address"
        }
      ],
      "stateMutability": "view",
      "type": "function"
    },
    {
      "inputs": [],
      "name": "_potatoToken",
      "outputs": [
        {
          "internalType": "contract IERC20",
          "name": "",
          "type": "address"
        }
      ],
      "stateMutability": "view",
      "type": "function"
    },
    {
      "inputs": [],
      "name": "_potatoTokenPermit",
      "outputs": [
        {
          "internalType": "contract IERC20Permit",
          "name": "",
          "type": "address"
        }
      ],
      "stateMutability": "view",
      "type": "function"
    },
    {
      "inputs": [
        {
          "internalType": "address",
          "name": "buyer",
          "type": "address"
        },
        {
          "internalType": "uint256",
          "name": "amount",
          "type": "uint256"
        }
      ],
      "name": "getApprovedAmount",
      "outputs": [],
      "stateMutability": "nonpayable",
      "type": "function"
    },
    {
      "inputs": [
        {
          "internalType": "bytes32",
          "name": "role",
          "type": "bytes32"
        }
      ],
      "name": "getRoleAdmin",
      "outputs": [
        {
          "internalType": "bytes32",
          "name": "",
          "type": "bytes32"
        }
      ],
      "stateMutability": "view",
      "type": "function"
    },
    {
      "inputs": [
        {
          "internalType": "bytes32",
          "name": "role",
          "type": "bytes32"
        },
        {
          "internalType": "address",
          "name": "account",
          "type": "address"
        }
      ],
      "name": "grantRole",
      "outputs": [],
      "stateMutability": "nonpayable",
      "type": "function"
    },
    {
      "inputs": [
        {
          "internalType": "bytes32",
          "name": "role",
          "type": "bytes32"
        },
        {
          "internalType": "address",
          "name": "account",
          "type": "address"
        }
      ],
      "name": "hasRole",
      "outputs": [
        {
          "internalType": "bool",
          "name": "",
          "type": "bool"
        }
      ],
      "stateMutability": "view",
      "type": "function"
    },
    {
      "inputs": [
        {
          "internalType": "uint8",
          "name": "lockerNumber",
          "type": "uint8"
        },
        {
          "internalType": "uint8",
          "name": "v",
          "type": "uint8"
        },
        {
          "internalType": "bytes32",
          "name": "r",
          "type": "bytes32"
        },
        {
          "internalType": "bytes32",
          "name": "s",
          "type": "bytes32"
        }
      ],
      "name": "openLocker",
      "outputs": [],
      "stateMutability": "nonpayable",
      "type": "function"
    },
    {
      "inputs": [
        {
          "internalType": "address",
          "name": "owner",
          "type": "address"
        },
        {
          "internalType": "address",
          "name": "spender",
          "type": "address"
        },
        {
          "internalType": "uint256",
          "name": "value",
          "type": "uint256"
        },
        {
          "internalType": "uint256",
          "name": "deadline",
          "type": "uint256"
        },
        {
          "internalType": "uint8",
          "name": "v",
          "type": "uint8"
        },
        {
          "internalType": "bytes32",
          "name": "r",
          "type": "bytes32"
        },
        {
          "internalType": "bytes32",
          "name": "s",
          "type": "bytes32"
        },
        {
          "internalType": "string",
          "name": "email",
          "type": "string"
        }
      ],
      "name": "permit",
      "outputs": [],
      "stateMutability": "nonpayable",
      "type": "function"
    },
    {
      "inputs": [
        {
          "internalType": "bytes32",
          "name": "role",
          "type": "bytes32"
        },
        {
          "internalType": "address",
          "name": "callerConfirmation",
          "type": "address"
        }
      ],
      "name": "renounceRole",
      "outputs": [],
      "stateMutability": "nonpayable",
      "type": "function"
    },
    {
      "inputs": [
        {
          "internalType": "address",
          "name": "buyer",
          "type": "address"
        }
      ],
      "name": "reserveLocker",
      "outputs": [
        {
          "internalType": "uint8",
          "name": "",
          "type": "uint8"
        }
      ],
      "stateMutability": "nonpayable",
      "type": "function"
    },
    {
      "inputs": [
        {
          "internalType": "bytes32",
          "name": "role",
          "type": "bytes32"
        },
        {
          "internalType": "address",
          "name": "account",
          "type": "address"
        }
      ],
      "name": "revokeRole",
      "outputs": [],
      "stateMutability": "nonpayable",
      "type": "function"
    },
    {
      "inputs": [
        {
          "internalType": "bytes4",
          "name": "interfaceId",
          "type": "bytes4"
        }
      ],
      "name": "supportsInterface",
      "outputs": [
        {
          "internalType": "bool",
          "name": "",
          "type": "bool"
        }
      ],
      "stateMutability": "view",
      "type": "function"
    }
  ],
  "transactionHash": "0xeb1557718446869921f75a6a277f7850e40e3b343145c5ead4ed25ccc2767b0d",
  "args": [
    "0x0936203E154ed749c099fc585770063fAD30BE35",
    "0x644d2BC5176Eed48ca123feBb83Efbb853d6fa34"
  ],
  "numDeployments": 1,
  "solcInputHash": "624e47d8f2f7c2c519d9e478e4d60f2d",
  "bytecode": "0x60c060405234801561001057600080fd5b50604051610ff4380380610ff483398101604081905261002f9161011a565b61003a600083610052565b506001600160a01b0316608081905260a0525061014d565b6000828152602081815260408083206001600160a01b038516845290915281205460ff166100f4576000838152602081815260408083206001600160a01b03861684529091529020805460ff191660011790556100ac3390565b6001600160a01b0316826001600160a01b0316847f2f8788117e7eff1d82e926ec794901d17c78024a50270940304540a733656f0d60405160405180910390a45060016100f8565b5060005b92915050565b80516001600160a01b038116811461011557600080fd5b919050565b6000806040838503121561012d57600080fd5b610136836100fe565b9150610144602084016100fe565b90509250929050565b60805160a051610e6661018e60003960008181610127015261090e0152600081816102070152818161064b0152818161072001526108010152610e666000f3fe608060405234801561001057600080fd5b50600436106100f55760003560e01c8063464ff773116100975780638f2a00df116100665780638f2a00df1461026257806391d1485414610275578063a217fddf14610288578063d547741f1461029057600080fd5b8063464ff773146102025780636a1f8e4f146102295780636b7000131461023c5780638858b8f31461024f57600080fd5b8063248a9ca3116100d3578063248a9ca31461018a5780632f2ff15d146101bb57806336568abe146101d057806340d484c9146101e357600080fd5b806301ffc9a7146100fa5780630b900b1c14610122578063204fd5d814610161575b600080fd5b61010d610108366004610b3a565b6102a3565b60405190151581526020015b60405180910390f35b6101497f000000000000000000000000000000000000000000000000000000000000000081565b6040516001600160a01b039091168152602001610119565b61014961016f366004610b81565b6001602052600090815260409020546001600160a01b031681565b6101ad610198366004610b9c565b60009081526020819052604090206001015490565b604051908152602001610119565b6101ce6101c9366004610bcc565b6102da565b005b6101ce6101de366004610bcc565b610305565b6002546101f09060ff1681565b60405160ff9091168152602001610119565b6101497f000000000000000000000000000000000000000000000000000000000000000081565b6101ce610237366004610bf8565b61033d565b6101f061024a366004610c3a565b610532565b6101ce61025d366004610c55565b610619565b6101ce610270366004610c95565b6108b7565b61010d610283366004610bcc565b6109a5565b6101ad600081565b6101ce61029e366004610bcc565b6109ce565b60006001600160e01b03198216637965db0b60e01b14806102d457506301ffc9a760e01b6001600160e01b03198316145b92915050565b6000828152602081905260409020600101546102f5816109f3565b6102ff8383610a00565b50505050565b6001600160a01b038116331461032e5760405163334bd91960e11b815260040160405180910390fd5b6103388282610a92565b505050565b6000610348816109f3565b60ff85166000908152600160205260409020546001600160a01b0316806103ac5760405162461bcd60e51b8152602060048201526013602482015272131bd8dad95c881b9bdd08185cdcda59db9959606a1b60448201526064015b60405180910390fd5b6040805160f888901b6001600160f81b03191660208083019190915282516001818403018152602190920190925280519101207f19457468657265756d205369676e6564204d6573736167653a0a3332000000006000908152601c829052603c81206040805160008082526020820180845284905260ff8b169282019290925260608101899052608081018890529192509060019060a0016020604051602081039080840390855afa158015610466573d6000803e3d6000fd5b505050602060405103519050836001600160a01b0316816001600160a01b0316146104c75760405162461bcd60e51b8152602060048201526011602482015270496e76616c6964207369676e617475726560781b60448201526064016103a3565b60ff891660008181526001602090815260409182902080546001600160a01b031916905590519182526001600160a01b038616917f480b2b07a28a022b4c8e2797261899a7a221effa55e59deeff08006aee68057891015b60405180910390a2505050505050505050565b60008061053e816109f3565b60ff441660005b6101008160ff1610156105f95760ff82166000908152600160205260409020546001600160a01b03166105ed5760ff821660008181526001602090815260409182902080546001600160a01b0319166001600160a01b038a16908117909155915192835290917f8e32dd4a14496063a2fcad0f29b8821e51a28881a1b0254b7cbe309fe2c455ce910160405180910390a2506002805460ff191660ff83161790559150610613565b60019182019101610545565b50604051631e51cb8960e11b815260040160405180910390fd5b50919050565b6000610624816109f3565b604051636eb1769f60e11b81526001600160a01b03848116600483015230602483015283917f00000000000000000000000000000000000000000000000000000000000000009091169063dd62ed3e90604401602060405180830381865afa158015610694573d6000803e3d6000fd5b505050506040513d601f19601f820116820180604052508101906106b89190610d9f565b10156106ff5760405162461bcd60e51b8152602060048201526016602482015275496e73756666696369656e7420616c6c6f77616e636560501b60448201526064016103a3565b6040516370a0823160e01b81526001600160a01b03848116600483015283917f0000000000000000000000000000000000000000000000000000000000000000909116906370a0823190602401602060405180830381865afa158015610769573d6000803e3d6000fd5b505050506040513d601f19601f8201168201806040525081019061078d9190610d9f565b10156107d25760405162461bcd60e51b8152602060048201526014602482015273496e73756666696369656e742062616c616e636560601b60448201526064016103a3565b6040516323b872dd60e01b81526001600160a01b038481166004830152306024830152604482018490526000917f0000000000000000000000000000000000000000000000000000000000000000909116906323b872dd906064016020604051808303816000875af115801561084c573d6000803e3d6000fd5b505050506040513d601f19601f820116820180604052508101906108709190610db8565b9050806102ff5760405162461bcd60e51b8152602060048201526015602482015274151bdad95b881d1c985b9cd9995c8819985a5b1959605a1b60448201526064016103a3565b60006108c2816109f3565b60405163d505accf60e01b81526001600160a01b038a811660048301528981166024830152604482018990526064820188905260ff8716608483015260a4820186905260c482018590527f0000000000000000000000000000000000000000000000000000000000000000169063d505accf9060e401600060405180830381600087803b15801561095257600080fd5b505af1158015610966573d6000803e3d6000fd5b50505050886001600160a01b03167f88f946cd307ff35d5847836cdaec5b3defaf0c06a57bb5c42f88db16e76b560e888460405161051f929190610dda565b6000918252602082815260408084206001600160a01b0393909316845291905290205460ff1690565b6000828152602081905260409020600101546109e9816109f3565b6102ff8383610a92565b6109fd8133610afd565b50565b6000610a0c83836109a5565b610a8a576000838152602081815260408083206001600160a01b03861684529091529020805460ff19166001179055610a423390565b6001600160a01b0316826001600160a01b0316847f2f8788117e7eff1d82e926ec794901d17c78024a50270940304540a733656f0d60405160405180910390a45060016102d4565b5060006102d4565b6000610a9e83836109a5565b15610a8a576000838152602081815260408083206001600160a01b0386168085529252808320805460ff1916905551339286917ff6391f5c32d9c69d2a47ea670b442974b53935d1edc7fd64eb21e047a839171b9190a45060016102d4565b610b0782826109a5565b610b365760405163e2517d3f60e01b81526001600160a01b0382166004820152602481018390526044016103a3565b5050565b600060208284031215610b4c57600080fd5b81356001600160e01b031981168114610b6457600080fd5b9392505050565b803560ff81168114610b7c57600080fd5b919050565b600060208284031215610b9357600080fd5b610b6482610b6b565b600060208284031215610bae57600080fd5b5035919050565b80356001600160a01b0381168114610b7c57600080fd5b60008060408385031215610bdf57600080fd5b82359150610bef60208401610bb5565b90509250929050565b60008060008060808587031215610c0e57600080fd5b610c1785610b6b565b9350610c2560208601610b6b565b93969395505050506040820135916060013590565b600060208284031215610c4c57600080fd5b610b6482610bb5565b60008060408385031215610c6857600080fd5b610c7183610bb5565b946020939093013593505050565b634e487b7160e01b600052604160045260246000fd5b600080600080600080600080610100898b031215610cb257600080fd5b610cbb89610bb5565b9750610cc960208a01610bb5565b96506040890135955060608901359450610ce560808a01610b6b565b935060a0890135925060c0890135915060e089013567ffffffffffffffff80821115610d1057600080fd5b818b0191508b601f830112610d2457600080fd5b813581811115610d3657610d36610c7f565b604051601f8201601f19908116603f01168101908382118183101715610d5e57610d5e610c7f565b816040528281528e6020848701011115610d7757600080fd5b8260208601602083013760006020848301015280955050505050509295985092959890939650565b600060208284031215610db157600080fd5b5051919050565b600060208284031215610dca57600080fd5b81518015158114610b6457600080fd5b82815260006020604081840152835180604085015260005b81811015610e0e57858101830151858201606001528201610df2565b506000606082860101526060601f19601f83011685010192505050939250505056fea26469706673582212209ad5074eebf1b451e9b9265caa2ecd71eb66f96f3609221107a651c12b87e56c64736f6c63430008140033",
  "devdoc": {
    "errors": {
      "AccessControlBadConfirmation()": [
        {
          "details": "The caller of a function is not the expected one. NOTE: Don't confuse with {AccessControlUnauthorizedAccount}."
        }
      ],
      "AccessControlUnauthorizedAccount(address,bytes32)": [
        {
          "details": "The `account` is missing a role."
        }
      ]
    },
    "events": {
      "RoleAdminChanged(bytes32,bytes32,bytes32)": {
        "details": "Emitted when `newAdminRole` is set as ``role``'s admin role, replacing `previousAdminRole` `DEFAULT_ADMIN_ROLE` is the starting admin for all roles, despite {RoleAdminChanged} not being emitted signaling this."
      },
      "RoleGranted(bytes32,address,address)": {
        "details": "Emitted when `account` is granted `role`. `sender` is the account that originated the contract call, an admin role bearer except when using {AccessControl-_setupRole}."
      },
      "RoleRevoked(bytes32,address,address)": {
        "details": "Emitted when `account` is revoked `role`. `sender` is the account that originated the contract call:   - if using `revokeRole`, it is the admin role bearer   - if using `renounceRole`, it is the role bearer (i.e. `account`)"
      }
    },
    "kind": "dev",
    "methods": {
      "getRoleAdmin(bytes32)": {
        "details": "Returns the admin role that controls `role`. See {grantRole} and {revokeRole}. To change a role's admin, use {_setRoleAdmin}."
      },
      "grantRole(bytes32,address)": {
        "details": "Grants `role` to `account`. If `account` had not been already granted `role`, emits a {RoleGranted} event. Requirements: - the caller must have ``role``'s admin role. May emit a {RoleGranted} event."
      },
      "hasRole(bytes32,address)": {
        "details": "Returns `true` if `account` has been granted `role`."
      },
      "renounceRole(bytes32,address)": {
        "details": "Revokes `role` from the calling account. Roles are often managed via {grantRole} and {revokeRole}: this function's purpose is to provide a mechanism for accounts to lose their privileges if they are compromised (such as when a trusted device is misplaced). If the calling account had been revoked `role`, emits a {RoleRevoked} event. Requirements: - the caller must be `callerConfirmation`. May emit a {RoleRevoked} event."
      },
      "revokeRole(bytes32,address)": {
        "details": "Revokes `role` from `account`. If `account` had been granted `role`, emits a {RoleRevoked} event. Requirements: - the caller must have ``role``'s admin role. May emit a {RoleRevoked} event."
      },
      "supportsInterface(bytes4)": {
        "details": "See {IERC165-supportsInterface}."
      }
    },
    "version": 1
  },
  "userdoc": {
    "kind": "user",
    "methods": {},
    "version": 1
  },
  "storageLayout": {
    "storage": [
      {
        "astId": 26,
        "contract": "contracts/PotatoVendor.sol:PotatoVendor",
        "label": "_roles",
        "offset": 0,
        "slot": "0",
        "type": "t_mapping(t_bytes32,t_struct(RoleData)21_storage)"
      },
      {
        "astId": 3956,
        "contract": "contracts/PotatoVendor.sol:PotatoVendor",
        "label": "_lockerToBuyer",
        "offset": 0,
        "slot": "1",
        "type": "t_mapping(t_uint8,t_address)"
      },
      {
        "astId": 3958,
        "contract": "contracts/PotatoVendor.sol:PotatoVendor",
        "label": "_lastLockerNumber",
        "offset": 0,
        "slot": "2",
        "type": "t_uint8"
      }
    ],
    "types": {
      "t_address": {
        "encoding": "inplace",
        "label": "address",
        "numberOfBytes": "20"
      },
      "t_bool": {
        "encoding": "inplace",
        "label": "bool",
        "numberOfBytes": "1"
      },
      "t_bytes32": {
        "encoding": "inplace",
        "label": "bytes32",
        "numberOfBytes": "32"
      },
      "t_mapping(t_address,t_bool)": {
        "encoding": "mapping",
        "key": "t_address",
        "label": "mapping(address => bool)",
        "numberOfBytes": "32",
        "value": "t_bool"
      },
      "t_mapping(t_bytes32,t_struct(RoleData)21_storage)": {
        "encoding": "mapping",
        "key": "t_bytes32",
        "label": "mapping(bytes32 => struct AccessControl.RoleData)",
        "numberOfBytes": "32",
        "value": "t_struct(RoleData)21_storage"
      },
      "t_mapping(t_uint8,t_address)": {
        "encoding": "mapping",
        "key": "t_uint8",
        "label": "mapping(uint8 => address)",
        "numberOfBytes": "32",
        "value": "t_address"
      },
      "t_struct(RoleData)21_storage": {
        "encoding": "inplace",
        "label": "struct AccessControl.RoleData",
        "members": [
          {
            "astId": 18,
            "contract": "contracts/PotatoVendor.sol:PotatoVendor",
            "label": "hasRole",
            "offset": 0,
            "slot": "0",
            "type": "t_mapping(t_address,t_bool)"
          },
          {
            "astId": 20,
            "contract": "contracts/PotatoVendor.sol:PotatoVendor",
            "label": "adminRole",
            "offset": 0,
            "slot": "1",
            "type": "t_bytes32"
          }
        ],
        "numberOfBytes": "64"
      },
      "t_uint8": {
        "encoding": "inplace",
        "label": "uint8",
        "numberOfBytes": "1"
      }
    }
  }
}