{
  "_format": "hh-sol-artifact-1",
  "contractName": "TokenizedBallot",
  "sourceName": "contracts/TokenizedBallot.sol",
  "abi": [
    {
      "inputs": [
        {
          "internalType": "bytes32[]",
          "name": "_proposalNames",
          "type": "bytes32[]"
        },
        {
          "internalType": "address",
          "name": "_tokenContract",
          "type": "address"
        },
        {
          "internalType": "uint256",
          "name": "_targetBlockNumber",
          "type": "uint256"
        }
      ],
      "stateMutability": "nonpayable",
      "type": "constructor"
    },
    {
      "anonymous": false,
      "inputs": [
        {
          "indexed": true,
          "internalType": "address",
          "name": "sender",
          "type": "address"
        },
        {
          "indexed": false,
          "internalType": "uint256",
          "name": "_proposal",
          "type": "uint256"
        },
        {
          "indexed": false,
          "internalType": "uint256",
          "name": "_amount",
          "type": "uint256"
        }
      ],
      "name": "Vote",
      "type": "event"
    },
    {
      "inputs": [
        {
          "internalType": "address",
          "name": "voter",
          "type": "address"
        }
      ],
      "name": "getRemainingVotingPower",
      "outputs": [
        {
          "internalType": "uint256",
          "name": "votePower_",
          "type": "uint256"
        }
      ],
      "stateMutability": "view",
      "type": "function"
    },
    {
      "inputs": [
        {
          "internalType": "uint256",
          "name": "",
          "type": "uint256"
        }
      ],
      "name": "proposals",
      "outputs": [
        {
          "internalType": "bytes32",
          "name": "name",
          "type": "bytes32"
        },
        {
          "internalType": "uint256",
          "name": "voteCount",
          "type": "uint256"
        }
      ],
      "stateMutability": "view",
      "type": "function"
    },
    {
      "inputs": [],
      "name": "targetBlockNumber",
      "outputs": [
        {
          "internalType": "uint256",
          "name": "",
          "type": "uint256"
        }
      ],
      "stateMutability": "view",
      "type": "function"
    },
    {
      "inputs": [],
      "name": "tokenContract",
      "outputs": [
        {
          "internalType": "contract IMyToken",
          "name": "",
          "type": "address"
        }
      ],
      "stateMutability": "view",
      "type": "function"
    },
    {
      "inputs": [
        {
          "internalType": "uint256",
          "name": "proposal",
          "type": "uint256"
        },
        {
          "internalType": "uint256",
          "name": "amount",
          "type": "uint256"
        }
      ],
      "name": "vote",
      "outputs": [],
      "stateMutability": "nonpayable",
      "type": "function"
    },
    {
      "inputs": [
        {
          "internalType": "address",
          "name": "",
          "type": "address"
        }
      ],
      "name": "votePowerSpent",
      "outputs": [
        {
          "internalType": "uint256",
          "name": "",
          "type": "uint256"
        }
      ],
      "stateMutability": "view",
      "type": "function"
    },
    {
      "inputs": [],
      "name": "winnerName",
      "outputs": [
        {
          "internalType": "bytes32",
          "name": "winnerName_",
          "type": "bytes32"
        }
      ],
      "stateMutability": "view",
      "type": "function"
    },
    {
      "inputs": [],
      "name": "winningProposal",
      "outputs": [
        {
          "internalType": "uint256",
          "name": "winningProposal_",
          "type": "uint256"
        }
      ],
      "stateMutability": "view",
      "type": "function"
    }
  ],
  "bytecode": "0x608060405234801561001057600080fd5b506040516107c03803806107c083398101604081905261002f91610110565b600080546001600160a01b0319166001600160a01b03841617905560028190554381111561005f5761005f6101e8565b60005b83518110156100d5576001604051806040016040528086848151811061008a5761008a6101fe565b602090810291909101810151825260009181018290528354600181810186559483529181902083516002909302019182559190910151910155806100cd81610214565b915050610062565b5050505061023b565b634e487b7160e01b600052604160045260246000fd5b80516001600160a01b038116811461010b57600080fd5b919050565b60008060006060848603121561012557600080fd5b83516001600160401b038082111561013c57600080fd5b818601915086601f83011261015057600080fd5b8151602082821115610164576101646100de565b8160051b604051601f19603f83011681018181108682111715610189576101896100de565b60405292835281830193508481018201928a8411156101a757600080fd5b948201945b838610156101c5578551855294820194938201936101ac565b97506101d490508882016100f4565b955050505050604084015190509250925092565b634e487b7160e01b600052600160045260246000fd5b634e487b7160e01b600052603260045260246000fd5b60006001820161023457634e487b7160e01b600052601160045260246000fd5b5060010190565b6105768061024a6000396000f3fe608060405234801561001057600080fd5b50600436106100885760003560e01c8063609ff1bd1161005b578063609ff1bd1461010f5780639e90d0d914610117578063b384abef14610137578063e2ba53f01461014c57600080fd5b8063013cf08b1461008d5780632a8cd29e146100ba5780632e4f32a5146100d157806355a373d6146100e4575b600080fd5b6100a061009b366004610451565b610154565b604080519283526020830191909152015b60405180910390f35b6100c360025481565b6040519081526020016100b1565b6100c36100df36600461046a565b610182565b6000546100f7906001600160a01b031681565b6040516001600160a01b0390911681526020016100b1565b6100c361021f565b6100c361012536600461046a565b60036020526000908152604090205481565b61014a61014536600461049a565b6102f1565b005b6100c361041e565b6001818154811061016457600080fd5b60009182526020909120600290910201805460019091015490915082565b6001600160a01b038181166000818152600360205260408082205482546002549251630748d63560e31b81526004810195909552602485019290925291939192911690633a46b1a890604401602060405180830381865afa1580156101eb573d6000803e3d6000fd5b505050506040513d601f19601f8201168201806040525081019061020f91906104bc565b61021991906104eb565b92915050565b600080805b600154811015610297578160018281548110610242576102426104fe565b9060005260206000209060020201600101541115610285576001818154811061026d5761026d6104fe565b90600052602060002090600202016001015491508092505b8061028f81610514565b915050610224565b50600081116102ed5760405162461bcd60e51b815260206004820152601a60248201527f4e6f626f647920686173206265656e20766f74696e672079657400000000000060448201526064015b60405180910390fd5b5090565b806102fb33610182565b10156103805760405162461bcd60e51b815260206004820152604860248201527f546f6b656e697a656442616c6c6f743a20766f74657220697320747279696e6760448201527f20746f20766f74652077697468206d6f726520766f74657320746861742068656064820152672f7368652068617360c01b608482015260a4016102e4565b336000908152600360205260408120805483929061039f90849061052d565b9250508190555080600183815481106103ba576103ba6104fe565b906000526020600020906002020160010160008282546103da919061052d565b9091555050604080518381526020810183905233917fafd3f234c1f8e944129b26b206d98e5752ad3336a4059938b4a3e990e9588530910160405180910390a25050565b6000600161042a61021f565b8154811061043a5761043a6104fe565b906000526020600020906002020160000154905090565b60006020828403121561046357600080fd5b5035919050565b60006020828403121561047c57600080fd5b81356001600160a01b038116811461049357600080fd5b9392505050565b600080604083850312156104ad57600080fd5b50508035926020909101359150565b6000602082840312156104ce57600080fd5b5051919050565b634e487b7160e01b600052601160045260246000fd5b81810381811115610219576102196104d5565b634e487b7160e01b600052603260045260246000fd5b600060018201610526576105266104d5565b5060010190565b80820180821115610219576102196104d556fea264697066735822122080039df45fc12645cafa7aebf4d8bfca378f2207a44a5c74ec214d740b6f663e64736f6c63430008140033",
  "linkReferences": {},
  "deployedLinkReferences": {}
}